{"abi":[{"type":"constructor","inputs":[{"name":"params","type":"tuple","internalType":"struct RouterParameters","components":[{"name":"permit2","type":"address","internalType":"address"},{"name":"weth9","type":"address","internalType":"address"},{"name":"v2Factory","type":"address","internalType":"address"},{"name":"v3Factory","type":"address","internalType":"address"},{"name":"pairInitCodeHash","type":"bytes32","internalType":"bytes32"},{"name":"poolInitCodeHash","type":"bytes32","internalType":"bytes32"},{"name":"v4PoolManager","type":"address","internalType":"address"},{"name":"v3NFTPositionManager","type":"address","internalType":"address"},{"name":"v4PositionManager","type":"address","internalType":"address"}]}],"stateMutability":"nonpayable"},{"type":"receive","stateMutability":"payable"},{"type":"function","name":"V3_POSITION_MANAGER","inputs":[],"outputs":[{"name":"","type":"address","internalType":"contract INonfungiblePositionManager"}],"stateMutability":"view"},{"type":"function","name":"V4_POSITION_MANAGER","inputs":[],"outputs":[{"name":"","type":"address","internalType":"contract IPositionManager"}],"stateMutability":"view"},{"type":"function","name":"execute","inputs":[{"name":"commands","type":"bytes","internalType":"bytes"},{"name":"inputs","type":"bytes[]","internalType":"bytes[]"}],"outputs":[],"stateMutability":"payable"},{"type":"function","name":"execute","inputs":[{"name":"commands","type":"bytes","internalType":"bytes"},{"name":"inputs","type":"bytes[]","internalType":"bytes[]"},{"name":"deadline","type":"uint256","internalType":"uint256"}],"outputs":[],"stateMutability":"payable"},{"type":"function","name":"msgSender","inputs":[],"outputs":[{"name":"","type":"address","internalType":"address"}],"stateMutability":"view"},{"type":"function","name":"poolManager","inputs":[],"outputs":[{"name":"","type":"address","internalType":"contract IPoolManager"}],"stateMutability":"view"},{"type":"function","name":"uniswapV3SwapCallback","inputs":[{"name":"amount0Delta","type":"int256","internalType":"int256"},{"name":"amount1Delta","type":"int256","internalType":"int256"},{"name":"data","type":"bytes","internalType":"bytes"}],"outputs":[],"stateMutability":"nonpayable"},{"type":"function","name":"unlockCallback","inputs":[{"name":"data","type":"bytes","internalType":"bytes"}],"outputs":[{"name":"","type":"bytes","internalType":"bytes"}],"stateMutability":"nonpayable"},{"type":"error","name":"BalanceTooLow","inputs":[]},{"type":"error","name":"ContractLocked","inputs":[]},{"type":"error","name":"DeltaNotNegative","inputs":[{"name":"currency","type":"address","internalType":"Currency"}]},{"type":"error","name":"DeltaNotPositive","inputs":[{"name":"currency","type":"address","internalType":"Currency"}]},{"type":"error","name":"ETHNotAccepted","inputs":[]},{"type":"error","name":"ExecutionFailed","inputs":[{"name":"commandIndex","type":"uint256","internalType":"uint256"},{"name":"message","type":"bytes","internalType":"bytes"}]},{"type":"error","name":"FromAddressIsNotOwner","inputs":[]},{"type":"error","name":"InputLengthMismatch","inputs":[]},{"type":"error","name":"InsufficientBalance","inputs":[]},{"type":"error","name":"InsufficientETH","inputs":[]},{"type":"error","name":"InsufficientToken","inputs":[]},{"type":"error","name":"InvalidAction","inputs":[{"name":"action","type":"bytes4","internalType":"bytes4"}]},{"type":"error","name":"InvalidBips","inputs":[]},{"type":"error","name":"InvalidCommandType","inputs":[{"name":"commandType","type":"uint256","internalType":"uint256"}]},{"type":"error","name":"InvalidEthSender","inputs":[]},{"type":"error","name":"InvalidPath","inputs":[]},{"type":"error","name":"InvalidReserves","inputs":[]},{"type":"error","name":"LengthMismatch","inputs":[]},{"type":"error","name":"NotAuthorizedForToken","inputs":[{"name":"tokenId","type":"uint256","internalType":"uint256"}]},{"type":"error","name":"NotPoolManager","inputs":[]},{"type":"error","name":"OnlyMintAllowed","inputs":[]},{"type":"error","name":"SliceOutOfBounds","inputs":[]},{"type":"error","name":"TransactionDeadlinePassed","inputs":[]},{"type":"error","name":"UnsafeCast","inputs":[]},{"type":"error","name":"UnsupportedAction","inputs":[{"name":"action","type":"uint256","internalType":"uint256"}]},{"type":"error","name":"V2InvalidPath","inputs":[]},{"type":"error","name":"V2TooLittleReceived","inputs":[]},{"type":"error","name":"V2TooMuchRequested","inputs":[]},{"type":"error","name":"V3InvalidAmountOut","inputs":[]},{"type":"error","name":"V3InvalidCaller","inputs":[]},{"type":"error","name":"V3InvalidSwap","inputs":[]},{"type":"error","name":"V3TooLittleReceived","inputs":[]},{"type":"error","name":"V3TooMuchRequested","inputs":[]},{"type":"error","name":"V4TooLittleReceived","inputs":[{"name":"minAmountOutReceived","type":"uint256","internalType":"uint256"},{"name":"amountReceived","type":"uint256","internalType":"uint256"}]},{"type":"error","name":"V4TooMuchRequested","inputs":[{"name":"maxAmountInRequested","type":"uint256","internalType":"uint256"},{"name":"amountRequested","type":"uint256","internalType":"uint256"}]}],"bytecode":{"object":"0x6101a0604052346102d657604051601f614f6238819003918201601f19168301916001600160401b038311848410176102c257808492610120946040528339810103126102d6576040519061012082016001600160401b038111838210176102c25760405261006d816102f9565b825261007b602082016102f9565b6020830190815261008e604083016102f9565b604084019081526100a1606084016102f9565b93606081019485526080840151946080820195865260a08501519560a083019687526100cf60c087016102f9565b9660c084019788526100f66101006100e960e08a016102f9565b988960e0880152016102f9565b97886101008601526101066102da565b6001600160a01b03988916815298881660208a0190815290519451965190989796871696908116959416936101396102da565b968752602087019586525192519151905160405190936001600160a01b0393841693169060808101906001600160401b038211818310176102c257604091825282815260208101948552808201938452606001948552608091909152905160a05290516001600160a01b0390811660c052915160e052610100929092529151821661012052915181166101405291518216610160529151166101805251614c54908161030e82396080518181816115d90152818161182701526137e4015260a0518181816115b80152818161184901526137c3015260c05181612ee6015260e05181612f39015261010051818181609e01528181610449015281816105b1015281816123240152818161288d0152818161431b015281816143ac015281816144b4015281816146350152614a45015261012051818181602f01528181611cb40152611e270152610140518181816112450152818161206201526133610152610160518181816106e301528181612458015261255101526101805181818161052701526129860152f35b634e487b7160e01b5f52604160045260245ffd5b5f80fd5b60408051919082016001600160401b038111838210176102c257604052565b51906001600160a01b03821682036102d65756fe60c060405260043610156100c6575b3615610018575f80fd5b73ffffffffffffffffffffffffffffffffffffffff7f00000000000000000000000000000000000000000000000000000000000000001633141580610086575b61005e57005b7f38bbd576000000000000000000000000000000000000000000000000000000005f5260045ffd5b5073ffffffffffffffffffffffffffffffffffffffff7f000000000000000000000000000000000000000000000000000000000000000016331415610058565b5f3560e01c806324856bc3146108685780633593564c14610707578063817122dc1461069957806391dd73461461054b578063d0c9f6cb146104dd578063d737d0c71461046d578063dc4c90d3146103ff5763fa461e330361000e57346102e05760607ffffffffffffffffffffffffffffffffffffffffffffffffffffffffffffffffc3601126102e05760243560043560443567ffffffffffffffff81116102e057610177903690600401610942565b5f8313918215806103f5575b6103cd578181016040828203126102e057813567ffffffffffffffff81116102e057820181601f820112156102e05780356101bd81612c69565b926101cb6040519485612c28565b818452602082840101116102e0575f928160208094018483013701015260208101359173ffffffffffffffffffffffffffffffffffffffff83168093036102e05761021591612e12565b90601790602b83106103a5578035968760601c9561024362ffffff8585013560601c9a60481c168a89612e65565b73ffffffffffffffffffffffffffffffffffffffff3391160361037d571561037357508685105b156102805750505061027e93503391612f86565b005b91935091939482602b0180602b116103465784106102e457508282116102e05781019103907f80000000000000000000000000000000000000000000000000000000000000008410156102e05761027e936102db3391612ca3565b613018565b5f80fd5b925050507faf28d9864a81dfdf71cab65f4e5d79a0cf9b083905fb8971425e6cb581b3f6929291925c821161031e5761027e923391612f86565b7f739dbe52000000000000000000000000000000000000000000000000000000005f5260045ffd5b7f4e487b71000000000000000000000000000000000000000000000000000000005f52601160045260245ffd5b955084871061026a565b7f32b13d91000000000000000000000000000000000000000000000000000000005f5260045ffd5b7f3b99b53d000000000000000000000000000000000000000000000000000000005f5260045ffd5b7f316cf0eb000000000000000000000000000000000000000000000000000000005f5260045ffd5b505f851315610183565b346102e0575f7ffffffffffffffffffffffffffffffffffffffffffffffffffffffffffffffffc3601126102e057602060405173ffffffffffffffffffffffffffffffffffffffff7f0000000000000000000000000000000000000000000000000000000000000000168152f35b346102e0575f7ffffffffffffffffffffffffffffffffffffffffffffffffffffffffffffffffc3601126102e05760207f0e87e1788ebd9ed6a7e63c70a374cd3283e41cad601d21fbe27863899ed4a7085c73ffffffffffffffffffffffffffffffffffffffff60405191168152f35b346102e0575f7ffffffffffffffffffffffffffffffffffffffffffffffffffffffffffffffffc3601126102e057602060405173ffffffffffffffffffffffffffffffffffffffff7f0000000000000000000000000000000000000000000000000000000000000000168152f35b346102e05760207ffffffffffffffffffffffffffffffffffffffffffffffffffffffffffffffffc3601126102e05760043567ffffffffffffffff81116102e05761059a903690600401610942565b73ffffffffffffffffffffffffffffffffffffffff7f0000000000000000000000000000000000000000000000000000000000000000163303610671576105e091613404565b90818303610649575f5b83811061061d57610619604051610602602082612c28565b5f81526040519182916020835260208301906109a1565b0390f35b8061064361062e60019387896109e4565b3560f81c61063d838787610a6e565b91613ac3565b016105ea565b7faaad13f7000000000000000000000000000000000000000000000000000000005f5260045ffd5b7fae18210a000000000000000000000000000000000000000000000000000000005f5260045ffd5b346102e0575f7ffffffffffffffffffffffffffffffffffffffffffffffffffffffffffffffffc3601126102e057602060405173ffffffffffffffffffffffffffffffffffffffff7f0000000000000000000000000000000000000000000000000000000000000000168152f35b60607ffffffffffffffffffffffffffffffffffffffffffffffffffffffffffffffffc3601126102e05760043567ffffffffffffffff81116102e057610751903690600401610942565b60243567ffffffffffffffff81116102e057610771903690600401610970565b916044354211610840573330146108375773ffffffffffffffffffffffffffffffffffffffff7f0e87e1788ebd9ed6a7e63c70a374cd3283e41cad601d21fbe27863899ed4a7085c1661080f576107ea93337f0e87e1788ebd9ed6a7e63c70a374cd3283e41cad601d21fbe27863899ed4a7085d610a89565b5f7f0e87e1788ebd9ed6a7e63c70a374cd3283e41cad601d21fbe27863899ed4a7085d005b7f6f5ffb7e000000000000000000000000000000000000000000000000000000005f5260045ffd5b61027e93610a89565b7f5bf6f916000000000000000000000000000000000000000000000000000000005f5260045ffd5b60407ffffffffffffffffffffffffffffffffffffffffffffffffffffffffffffffffc3601126102e05760043567ffffffffffffffff81116102e0576108b2903690600401610942565b60243567ffffffffffffffff81116102e0576108d2903690600401610970565b913330146108375773ffffffffffffffffffffffffffffffffffffffff7f0e87e1788ebd9ed6a7e63c70a374cd3283e41cad601d21fbe27863899ed4a7085c1661080f576107ea93337f0e87e1788ebd9ed6a7e63c70a374cd3283e41cad601d21fbe27863899ed4a7085d610a89565b9181601f840112156102e05782359167ffffffffffffffff83116102e057602083818601950101116102e057565b9181601f840112156102e05782359167ffffffffffffffff83116102e0576020808501948460051b0101116102e057565b907fffffffffffffffffffffffffffffffffffffffffffffffffffffffffffffffe0601f602080948051918291828752018686015e5f8582860101520116010190565b908210156109f0570190565b7f4e487b71000000000000000000000000000000000000000000000000000000005f52603260045260245ffd5b9035907fffffffffffffffffffffffffffffffffffffffffffffffffffffffffffffffe1813603018212156102e0570180359067ffffffffffffffff82116102e0576020019181360383136102e057565b908210156109f057610a859160051b810190610a1d565b9091565b9290808203612bb7579291905f915b848310610aa6575050505050565b9091929394610ab68487876109e4565b3592610ac3858285610a6e565b979092606097603f8760f81c1695600196602181105f14612a1c5760108110156122b15760088110156115245780610eeb5750610b0560208701359b87612e3a565b9590608088013515610ee4577f0e87e1788ebd9ed6a7e63c70a374cd3283e41cad601d21fbe27863899ed4a7085c9c5b610b3f89356131e2565b9d9188816080527f80000000000000000000000000000000000000000000000000000000000000008314610e58575b50505b604260a052602b7f80000000000000000000000000000000000000000000000000000000000000008210156102e05760a0518f908a10610e52575030915b8982116102e05760409173ffffffffffffffffffffffffffffffffffffffff5f6080513595610cb2610c2b610c5d85610c018b60601c6017608051013560601c62ffffff8183109e60481c1691612e65565b16968a8614610e37576401000276a49b5b878b519485938d60208601526060850190608051612ccf565b91168b830152037fffffffffffffffffffffffffffffffffffffffffffffffffffffffffffffffe08101835282612c28565b8488519a8b98899788967f128acb080000000000000000000000000000000000000000000000000000000088521660048701528b6024870152604486015216606484015260a0608484015260a48301906109a1565b03925af1908115610e2c575f905f92610df0575b610cd6935015610de95750612ca3565b60a0519096908110610d1d573090806017116102e0576080805160170190527fffffffffffffffffffffffffffffffffffffffffffffffffffffffffffffffe90196610b71565b50979396929a50979490989360409091013511610dc1575b159081610d96575b50610d4f575060010191909392610a98565b90610d926040519283927f2c4029e900000000000000000000000000000000000000000000000000000000845260048401526040602484015260448301906109a1565b0390fd5b7f8000000000000000000000000000000000000000000000000000000000000000915016155f610d3d565b7f39d35496000000000000000000000000000000000000000000000000000000005f5260045ffd5b9050612ca3565b9150506040823d8211610e24575b81610e0b60409383612c28565b810103126102e057816020610cd6935191015191610cc6565b3d9150610dfe565b6040513d5f823e3d90fd5b73fffd8963efd1fc6a506488495d951d5263988d259b610c12565b91610baf565b6014919250106103a5576020602491604051928380927f70a082310000000000000000000000000000000000000000000000000000000082523060048301523560601c5afa908115610e2c575f91610eb3575b505f80610b6e565b90506020813d8211610edc575b81610ecd60209383612c28565b810103126102e057515f610eab565b3d9150610ec0565b309c610b35565b6001819c929a97939b96999598949c145f14611024575090610f1260208201359282612e3a565b60808301351561101d577f0e87e1788ebd9ed6a7e63c70a374cd3283e41cad601d21fbe27863899ed4a7085c915b6040610f4c85356131e2565b9401357faf28d9864a81dfdf71cab65f4e5d79a0cf9b083905fb8971425e6cb581b3f6925d7f80000000000000000000000000000000000000000000000000000000000000008510156102e057610fa6936102db86612ca3565b9091901561100e5750610fb890612ca3565b03610fe6575f7faf28d9864a81dfdf71cab65f4e5d79a0cf9b083905fb8971425e6cb581b3f6925d5b610d35565b7fd4e0248e000000000000000000000000000000000000000000000000000000005f5260045ffd5b6110189150612ca3565b610fb8565b3091610f40565b6002810361106e5750610fe191604081013591507f0e87e1788ebd9ed6a7e63c70a374cd3283e41cad601d21fbe27863899ed4a7085c61106760208301356131e2565b9135613348565b93949193909290600381036112a1575050508135820163ffffffff60208401351683019163ffffffff83351693602080850194860101910110611294577f0e87e1788ebd9ed6a7e63c70a374cd3283e41cad601d21fbe27863899ed4a7085c926040519273ffffffffffffffffffffffffffffffffffffffff60208501957f2a2d80d10000000000000000000000000000000000000000000000000000000087521660248501526060604485015260e484019280357fffffffffffffffffffffffffffffffffffffffffffffffffffffffffffffffe1823603018112156102e05781016020813591019467ffffffffffffffff82116102e0578160071b360386136102e05781906060608489015252610104860194905f905b80821061127657505050936111ff5f9694829461122b9460408973ffffffffffffffffffffffffffffffffffffffff6111c360208e9d01612d3c565b1660a4880152013560c48601527fffffffffffffffffffffffffffffffffffffffffffffffffffffffffffffffdc858403016064860152612ccf565b037fffffffffffffffffffffffffffffffffffffffffffffffffffffffffffffffe08101835282612c28565b51908273ffffffffffffffffffffffffffffffffffffffff7f0000000000000000000000000000000000000000000000000000000000000000165af190611270612d0d565b91610d35565b909195608080826112896001948b612d9d565b019701920190611187565b633b99b53d5f526004601cfd5b91949390925090600481036113fa57506112be60208201356131e2565b9073ffffffffffffffffffffffffffffffffffffffff8060408301351691351680155f1461133457504790811061130c57806112fc575b5050610d35565b611305916134c8565b5f806112f5565b7f6a12f104000000000000000000000000000000000000000000000000000000005f5260045ffd5b91604051917f70a08231000000000000000000000000000000000000000000000000000000008352306004840152602083602481875afa928315610e2c575f936113c7575b50821061139f578161138e575b505050610d35565b61139792613a14565b5f8080611386565b7f675cae38000000000000000000000000000000000000000000000000000000005f5260045ffd5b9092506020813d82116113f2575b816113e260209383612c28565b810103126102e05751915f611379565b3d91506113d5565b600581036114215750806040610fe19201359061141a60208201356131e2565b903561326c565b600681036114f9575060408101359073ffffffffffffffffffffffffffffffffffffffff61145260208301356131e2565b9135168061146e5750611468610fe192476139d2565b906134c8565b906040517f70a08231000000000000000000000000000000000000000000000000000000008152306004820152602081602481865afa908115610e2c575f916114c6575b50610fe1936114c0916139d2565b91613a14565b90506020813d82116114f1575b816114e060209383612c28565b810103126102e05751610fe16114b2565b3d91506114d3565b7fd76a1e9e000000000000000000000000000000000000000000000000000000005f5260045260245ffd5b6008819c929a97939b96999598949c145f146117d9575061154a6020830135918361319d565b906080840135156117d2577f0e87e1788ebd9ed6a7e63c70a374cd3283e41cad601d21fbe27863899ed4a7085c915b61158385356131e2565b9282156109f057611593826131c1565b83600110156109f0576115b56115fd916115af602086016131c1565b906141ee565b907f00000000000000000000000000000000000000000000000000000000000000007f0000000000000000000000000000000000000000000000000000000000000000614226565b9485816117b8575b5050507fffffffffffffffffffffffffffffffffffffffffffffffffffffffffffffffff82018281116103465761165a61165573ffffffffffffffffffffffffffffffffffffffff92858561324f565b6131c1565b1693604051927f70a0823100000000000000000000000000000000000000000000000000000000845273ffffffffffffffffffffffffffffffffffffffff8516928360048601526020856024818a5afa948515610e2c575f9561177b575b50946116c8929160209596613586565b6024604051809581937f70a0823100000000000000000000000000000000000000000000000000000000835260048301525afa918215610e2c575f92611747575b506040611719929301359261325f565b1015610d35577f849eaf98000000000000000000000000000000000000000000000000000000005f5260045ffd5b91506020823d8211611773575b8161176160209383612c28565b810103126102e0579051906040611709565b3d9150611754565b92919450946020833d82116117b0575b8161179860209383612c28565b810103126102e05791519194919390916116c86116b8565b3d915061178b565b6117ca926117c5856131c1565b612f86565b5f8085611605565b3091611579565b60098103611b4357506117ec908261319d565b608083013515611b3c577f0e87e1788ebd9ed6a7e63c70a374cd3283e41cad601d21fbe27863899ed4a7085c915b61182484356131e2565b917f0000000000000000000000000000000000000000000000000000000000000000937f0000000000000000000000000000000000000000000000000000000000000000955f9560028510611b14576020820135977fffffffffffffffffffffffffffffffffffffffffffffffffffffffffffffffff8601868111610346579190825b6118fd575050506040013586116118d55782156109f057610fe195856118d0926117c5856131c1565b613586565b7f8ab0bc16000000000000000000000000000000000000000000000000000000005f5260045ffd5b90919897507fffffffffffffffffffffffffffffffffffffffffffffffffffffffffffffffff8901978989116103465761193e6116556119609a898961324f565b61195561194f6116558d8b8b61324f565b826141ee565b8185879d939d614226565b90604051907f0902f1ac00000000000000000000000000000000000000000000000000000000825260608260048173ffffffffffffffffffffffffffffffffffffffff87165afa918215610e2c575f905f93611ab7575b5073ffffffffffffffffffffffffffffffffffffffff6dffffffffffffffffffffffffffff8082931694169d169116145f14611ab15799905b9980158015611aa9575b611a815782611a0891613988565b916103e88302928084046103e8149015171561034657611a279161325f565b6103e58102908082046103e5149015171561034657611a459161399b565b6001810180911161034657988015610346577fffffffffffffffffffffffffffffffffffffffffffffffffffffffffffffffff019190826118a7565b7f7b9c8916000000000000000000000000000000000000000000000000000000005f5260045ffd5b5081156119fa565b906119f0565b6dffffffffffffffffffffffffffff80945073ffffffffffffffffffffffffffffffffffffffff9250611b01839260603d8111611b0d575b611af98183612c28565b810190613550565b509590935050506119b7565b503d611aef565b7f20db8267000000000000000000000000000000000000000000000000000000005f5260045ffd5b309161181a565b93949193909290600a8103611c445750505063ffffffff60c08301351682019063ffffffff82351690836020808501948401019101106112945760a061122b5f946111ff86957f0e87e1788ebd9ed6a7e63c70a374cd3283e41cad601d21fbe27863899ed4a7085c9560405195869473ffffffffffffffffffffffffffffffffffffffff60208701997f2b67b570000000000000000000000000000000000000000000000000000000008b52166024870152611c026044870182612d9d565b73ffffffffffffffffffffffffffffffffffffffff611c2360808301612d3c565b1660c4870152013560e4850152610100610104850152610124840191612ccf565b91949390929091600b8103611dfb575050611c64602082013591356131e2565b90807f80000000000000000000000000000000000000000000000000000000000000008103611dcc575050475b80611c9d575050610d35565b73ffffffffffffffffffffffffffffffffffffffff7f00000000000000000000000000000000000000000000000000000000000000001691823b156102e057604051907fd0e30db00000000000000000000000000000000000000000000000000000000082525f8260048186885af1918215610e2c5773ffffffffffffffffffffffffffffffffffffffff92611dbc575b501690308203611d3f575b506112f5565b60446020925f60405195869485937fa9059cbb000000000000000000000000000000000000000000000000000000008552600485015260248401525af18015610e2c57611d8e575b8080611d39565b611dae9060203d8111611db5575b611da68183612c28565b810190613237565b505f611d87565b503d611d9c565b5f611dc691612c28565b5f611d2e565b471015611c91577f6a12f104000000000000000000000000000000000000000000000000000000005f5260045ffd5b600c8103611f65575050611e0f81356131e2565b9073ffffffffffffffffffffffffffffffffffffffff7f000000000000000000000000000000000000000000000000000000000000000016604051917f70a08231000000000000000000000000000000000000000000000000000000008352306004840152602083602481855afa928315610e2c575f93611f31575b5060200135821061130c5781611ea357505050610d35565b803b156102e0575f80916024604051809481937f2e1a7d4d0000000000000000000000000000000000000000000000000000000083528760048401525af18015610e2c57611f21575b503073ffffffffffffffffffffffffffffffffffffffff831603611f11575b80611386565b611f1a916134c8565b5f80611f0b565b5f611f2b91612c28565b5f611eec565b9092506020813d8211611f5d575b81611f4c60209383612c28565b810103126102e05751916020611e8b565b3d9150611f3f565b600d819c939c9b929597989b99949699145f146121ac57508a358b0198893594611f976020808d019e8d030187612f79565b116103a55773ffffffffffffffffffffffffffffffffffffffff7f0e87e1788ebd9ed6a7e63c70a374cd3283e41cad601d21fbe27863899ed4a7085c169a935f5b8681101561203d578c73ffffffffffffffffffffffffffffffffffffffff61200760208f8560071b01016131c1565b160361201557600101611fd8565b7fe7002877000000000000000000000000000000000000000000000000000000005f5260045ffd5b50989593979694929b919a50985073ffffffffffffffffffffffffffffffffffffffff7f00000000000000000000000000000000000000000000000000000000000000001690813b156102e0576040517f0d58b1db000000000000000000000000000000000000000000000000000000008152602060048201526024810184905292839160448301915f905b8082106120fe5750505091815f81819503925af18015610e2c576120ee575b50610d35565b5f6120f891612c28565b5f6120e8565b9193509160808060019273ffffffffffffffffffffffffffffffffffffffff61212688612d3c565b16815273ffffffffffffffffffffffffffffffffffffffff61214a60208901612d3c565b16602082015273ffffffffffffffffffffffffffffffffffffffff61217160408901612d3c565b16604082015273ffffffffffffffffffffffffffffffffffffffff61219860608901612d3c565b1660608201520194019201859392916120c9565b80929b93989550600e919a97969450145f146114f95750604051907f70a0823100000000000000000000000000000000000000000000000000000000825273ffffffffffffffffffffffffffffffffffffffff813516600483015260208260248173ffffffffffffffffffffffffffffffffffffffff84860135165afa918215610e2c575f9261227d575b5060400135111580610fe15791506040517fa328167200000000000000000000000000000000000000000000000000000000602082015260048152611270602482612c28565b9091506020813d82116122a9575b8161229860209383612c28565b810103126102e05751906040612237565b3d915061228b565b6010819c929a97939b96999598949c145f146123cc575061230a915f9160405193849283927f48c89491000000000000000000000000000000000000000000000000000000008452602060048501526024840191612ccf565b03818373ffffffffffffffffffffffffffffffffffffffff7f0000000000000000000000000000000000000000000000000000000000000000165af18015610e2c576123565750610d35565b3d805f833e6123658183612c28565b8101906020818303126102e05780519067ffffffffffffffff82116102e0570181601f820112156102e057805161239b81612c69565b926123a96040519485612c28565b818452602082840101116102e0575f928160208094018483015e0101525f6120e8565b80929495506011919350145f146124ae5750907fffffffff000000000000000000000000000000000000000000000000000000008135167f7ac2ff7b0000000000000000000000000000000000000000000000000000000081036124835750815f929183926040519283928337810183815203908273ffffffffffffffffffffffffffffffffffffffff7f0000000000000000000000000000000000000000000000000000000000000000165af190611270612d0d565b7ff801e525000000000000000000000000000000000000000000000000000000005f5260045260245ffd5b601281036127ad57507f0e87e1788ebd9ed6a7e63c70a374cd3283e41cad601d21fbe27863899ed4a7085c917fffffffff000000000000000000000000000000000000000000000000000000008135167f0c49ccbe0000000000000000000000000000000000000000000000000000000081148015612784575b801561275b575b156124835750600481013573ffffffffffffffffffffffffffffffffffffffff7f000000000000000000000000000000000000000000000000000000000000000016936040517f6352211e000000000000000000000000000000000000000000000000000000008152826004820152602081602481895afa908115610e2c5773ffffffffffffffffffffffffffffffffffffffff9182915f9161273d575b50169116908082149182156126a9575b8215612638575b50501561260d575091815f809481946040519384928337810182815203925af190611270612d0d565b7fbb25d4c5000000000000000000000000000000000000000000000000000000005f5260045260245ffd5b909150604051917fe985e9c500000000000000000000000000000000000000000000000000000000835260048301526024820152602081604481885afa908115610e2c575f9161268b575b505f806125e4565b6126a3915060203d8111611db557611da68183612c28565b5f612683565b91506040517f081812fc0000000000000000000000000000000000000000000000000000000081528360048201526020816024818a5afa908115610e2c57839173ffffffffffffffffffffffffffffffffffffffff915f9161270f575b501614916125dd565b612730915060203d8111612736575b6127288183612c28565b81019061349c565b5f612706565b503d61271e565b612755915060203d8111612736576127288183612c28565b5f6125cd565b507f42966c6800000000000000000000000000000000000000000000000000000000811461252f565b507ffc6f7865000000000000000000000000000000000000000000000000000000008114612528565b601381036128b85750505f809160405173ffffffffffffffffffffffffffffffffffffffff60a060208301937f6276cbbe0000000000000000000000000000000000000000000000000000000085528261280682612d3c565b1660248501528261281960208301612d3c565b16604485015262ffffff61282f60408301612d5d565b16606485015261284160608201612d6d565b60020b60848501528261285660808301612d3c565b1660a485015201351660c482015260c4815261287360e482612c28565b51908273ffffffffffffffffffffffffffffffffffffffff7f0000000000000000000000000000000000000000000000000000000000000000165af190611270612d0d565b601481036114f957507fffffffff000000000000000000000000000000000000000000000000000000008235167fdd46508f0000000000000000000000000000000000000000000000000000000081036124835750806004116102e05761294d6129477ffffffffffffffffffffffffffffffffffffffffffffffffffffffffffffffffc830160048501612e12565b90612e12565b5f5b8181106129b1575050505f91829147918160405192839283378101848152039173ffffffffffffffffffffffffffffffffffffffff7f0000000000000000000000000000000000000000000000000000000000000000165af190611270612d0d565b6129bc8183856109e4565b3560f81c8015908115612a11575b8115612a06575b506129de5760010161294f565b7f5d1d0f9f000000000000000000000000000000000000000000000000000000005f5260045ffd5b60039150145f6129d1565b6001811491506129ca565b9098959199506021819b939b989598979497145f146114f9575090612a4091613404565b612a836040959395519460208601967f24856bc3000000000000000000000000000000000000000000000000000000008852604060248801526064870191612ccf565b927fffffffffffffffffffffffffffffffffffffffffffffffffffffffffffffffdc858503016044860152818452602084019160208160051b86010194845f907fffffffffffffffffffffffffffffffffffffffffffffffffffffffffffffffe1813603015b848310612b3d5750505050505050509181612b2e5f94938594037fffffffffffffffffffffffffffffffffffffffffffffffffffffffffffffffe08101835282612c28565b519082305af190611270612d0d565b90919293949596977fffffffffffffffffffffffffffffffffffffffffffffffffffffffffffffffe08582030188528835828112156102e0578301906020823592019167ffffffffffffffff81116102e05780360383136102e057612ba760209283928b95612ccf565b9a01980196959493019190612ae9565b7fff633a38000000000000000000000000000000000000000000000000000000005f5260045ffd5b60a0810190811067ffffffffffffffff821117612bfb57604052565b7f4e487b71000000000000000000000000000000000000000000000000000000005f52604160045260245ffd5b90601f7fffffffffffffffffffffffffffffffffffffffffffffffffffffffffffffffe0910116810190811067ffffffffffffffff821117612bfb57604052565b67ffffffffffffffff8111612bfb57601f017fffffffffffffffffffffffffffffffffffffffffffffffffffffffffffffffe01660200190565b7f80000000000000000000000000000000000000000000000000000000000000008114610346575f0390565b601f82602094937fffffffffffffffffffffffffffffffffffffffffffffffffffffffffffffffe093818652868601375f8582860101520116010190565b3d15612d37573d90612d1e82612c69565b91612d2c6040519384612c28565b82523d5f602084013e565b606090565b359073ffffffffffffffffffffffffffffffffffffffff821682036102e057565b359062ffffff821682036102e057565b35908160020b82036102e057565b908160209103126102e0575190565b359065ffffffffffff821682036102e057565b65ffffffffffff612e0c6060809373ffffffffffffffffffffffffffffffffffffffff612dc982612d3c565b16865273ffffffffffffffffffffffffffffffffffffffff612ded60208301612d3c565b16602087015283612e0060408301612d8a565b16604087015201612d8a565b16910152565b909163ffffffff82351682019263ffffffff8435169260208086019585010191011061129457565b909163ffffffff60608301351682019263ffffffff8435169260208086019585010191011061129457565b9073ffffffffffffffffffffffffffffffffffffffff9283821684841611612f71575b62ffffff90846040519381602086019616865216604084015216606082015260608152612eb6608082612c28565b5190206040517fff00000000000000000000000000000000000000000000000000000000000000602082019081527f000000000000000000000000000000000000000000000000000000000000000060601b7fffffffffffffffffffffffffffffffffffffffff00000000000000000000000016602183015260358201929092527f00000000000000000000000000000000000000000000000000000000000000006055820152612f6a81607581016111ff565b5190201690565b909190612e88565b9190820180921161034657565b9092919073ffffffffffffffffffffffffffffffffffffffff84163003612fb357612fb1935061326c565b565b919273ffffffffffffffffffffffffffffffffffffffff8411612ff05773ffffffffffffffffffffffffffffffffffffffff612fb1941692613348565b7fc4bd89a9000000000000000000000000000000000000000000000000000000005f5260045ffd5b939290602b82106103a5578235938460601c92601785013560601c9380851094859760481c62ffffff169061304c92612e65565b73ffffffffffffffffffffffffffffffffffffffff1692845f1460409673ffffffffffffffffffffffffffffffffffffffff80956130e15f9661313495613182576401000276a4925b846130af8e51978f94899560208701526060860191612ccf565b91168d830152037fffffffffffffffffffffffffffffffffffffffffffffffffffffffffffffffe08101855284612c28565b89519b8c998a9889977f128acb080000000000000000000000000000000000000000000000000000000089521660048801526024870152604486015216606484015260a0608484015260a48301906109a1565b03925af18015610e2c575f925f9161314b57509192565b9250506040823d60401161317a575b8161316760409383612c28565b810103126102e057602082519201519192565b3d915061315a565b73fffd8963efd1fc6a506488495d951d5263988d2592613095565b9160608301358301916131ba602084359581860195030185612f79565b116103a557565b3573ffffffffffffffffffffffffffffffffffffffff811681036102e05790565b73ffffffffffffffffffffffffffffffffffffffff8116600181036132285750507f0e87e1788ebd9ed6a7e63c70a374cd3283e41cad601d21fbe27863899ed4a7085c90565b60020361323457503090565b90565b908160209103126102e0575180151581036102e05790565b91908110156109f05760051b0190565b9190820391821161034657565b90919073ffffffffffffffffffffffffffffffffffffffff16806132945750612fb1916134c8565b7f800000000000000000000000000000000000000000000000000000000000000082146132c6575b91612fb192613a14565b9050604051917f70a08231000000000000000000000000000000000000000000000000000000008352306004840152602083602481855afa8015610e2c575f90613314575b909250906132bc565b506020833d602011613340575b8161332e60209383612c28565b810103126102e057612fb1925161330b565b3d9150613321565b919273ffffffffffffffffffffffffffffffffffffffff7f00000000000000000000000000000000000000000000000000000000000000001691823b156102e0575f73ffffffffffffffffffffffffffffffffffffffff9384829681608496816040519b8c9a8b997f36c78516000000000000000000000000000000000000000000000000000000008b521660048a01521660248801521660448601521660648401525af18015610e2c576133fa5750565b5f612fb191612c28565b604081351891606082019363ffffffff6040840135169363ffffffe0601f8601169060608201602086013518179084019260608401359463ffffffff861694641fffffffe0608082019760051b1680915f925b80841061346f57506080925001019101101761129457565b90916020809163ffffffe0601f60808089890101359b848d18179b88010135011601019301929190613457565b908160209103126102e0575173ffffffffffffffffffffffffffffffffffffffff811681036102e05790565b5f80809381935af1156134d757565b60646040517f08c379a000000000000000000000000000000000000000000000000000000000815260206004820152601360248201527f4554485f5452414e534645525f4641494c4544000000000000000000000000006044820152fd5b51906dffffffffffffffffffffffffffff821682036102e057565b908160609103126102e05761356481613535565b91604061357360208401613535565b92015163ffffffff811681036102e05790565b91600282106139605781156109f05761359e836131c1565b82600110156109f0576135ba906115af602086979596016131c1565b50927fffffffffffffffffffffffffffffffffffffffffffffffffffffffffffffffff8101937ffffffffffffffffffffffffffffffffffffffffffffffffffffffffffffffffe8201955f906020937fffffffffffffffffffffffffffffffffffffffffffffffffffffffffffffffe08501965b8884106136415750505050505050505050565b61364f61165585848661324f565b9473ffffffffffffffffffffffffffffffffffffffff61367661165560018801868861324f565b921695604051917f0902f1ac0000000000000000000000000000000000000000000000000000000083526060836004818b5afa918215610e2c57895f945f9461390d575b5073ffffffffffffffffffffffffffffffffffffffff806dffffffffffffffffffffffffffff80602496979816971693169416841494855f146139075791935b604051938480927f70a082310000000000000000000000000000000000000000000000000000000082528d60048301525afa918215610e2c575f926138d8575b50808203928115928380156138d0575b611a8157826103e586029586046103e514911417156103465761376d9084613988565b916103e882029182046103e8141715610346576137939261378d91612f79565b9061399b565b90156138c9575f90915b8b8610156138c057906137be613808926115af61165560028a01888a61324f565b8193917f00000000000000000000000000000000000000000000000000000000000000007f0000000000000000000000000000000000000000000000000000000000000000614226565b915b96604051906138198a83612c28565b5f82528b368b840137803b156102e057613894945f8094604051978895869485937f022c0d9f0000000000000000000000000000000000000000000000000000000085526004850152602484015273ffffffffffffffffffffffffffffffffffffffff891660448401526080606484015260848301906109a1565b03925af1918215610e2c576001926138b0575b5093019261362e565b5f6138ba91612c28565b5f6138a7565b5087905f61380a565b5f9161379d565b50811561374a565b9091508981813d8311613900575b6138f08183612c28565b810103126102e05751905f61373a565b503d6138e6565b936136fa565b6dffffffffffffffffffffffffffff9550602493945073ffffffffffffffffffffffffffffffffffffffff86613951829360603d8111611b0d57611af98183612c28565b509890989796505050506136ba565b7fae52ad0c000000000000000000000000000000000000000000000000000000005f5260045ffd5b8181029291811591840414171561034657565b81156139a5570490565b7f4e487b71000000000000000000000000000000000000000000000000000000005f52601260045260245ffd5b61271082116139ec57612710916139e891613988565b0490565b7fdeaa01e6000000000000000000000000000000000000000000000000000000005f5260045ffd5b5f9182604492602095604051937fa9059cbb000000000000000000000000000000000000000000000000000000008552600485015260248401525af13d15601f3d1160015f511416171615613a6557565b60646040517f08c379a000000000000000000000000000000000000000000000000000000000815260206004820152600f60248201527f5452414e534645525f4641494c454400000000000000000000000000000000006044820152fd5b929190600b84101561401c5760078403613c3557613ae292935061474f565b6020810190613af1828261475d565b90505f92613afe836131c1565b90613b0b604085016146bc565b906fffffffffffffffffffffffffffffffff821615613c1c575b92915f915b838310613bab5750505050506060016fffffffffffffffffffffffffffffffff80613b54836146bc565b169216918210613b62575050565b613b7c6fffffffffffffffffffffffffffffffff916146bc565b7f8b063d73000000000000000000000000000000000000000000000000000000005f521660045260245260445ffd5b8496506fffffffffffffffffffffffffffffffff613c0091613be7613be086613bda613c059798999a8c61475d565b906147b1565b9586614ad8565b613bf46080880188610a1d565b949093165f0391614938565b614bff565b946001613c1287936131c1565b9194930191613b2a565b9050613c2f613c2a83614314565b6148f3565b90613b25565b60068403613d2c57613c489293506146ad565b613c5460c082016146bc565b6fffffffffffffffffffffffffffffffff811615613cdb575b613cbe613c0060e092613c9d6fffffffffffffffffffffffffffffffff613c9660a088016146d9565b9216612ca3565b90613cac610100870187610a1d565b929091613cb936896146e6565b614938565b91016fffffffffffffffffffffffffffffffff80613b54836146bc565b50613ce860a082016146d9565b15613d125760e0613cbe613c00613d09613c2a613d04866131c1565b614314565b92505050613c6d565b60e0613cbe613c00613d09613c2a613d04602087016131c1565b60098403613ecf57613d3f92935061474f565b6020810190613d4e828261475d565b5f939150613d5e604084016146bc565b613d67846131c1565b916fffffffffffffffffffffffffffffffff821615613ebb575b92919290815b613e0457505050506060016fffffffffffffffffffffffffffffffff80613dad836146bc565b169216918211613dbb575050565b613dd56fffffffffffffffffffffffffffffffff916146bc565b7f12bacdd3000000000000000000000000000000000000000000000000000000005f521660045260245260445ffd5b829395506fffffffffffffffffffffffffffffffff613e7b91613e61613e5a613e31613e8596978a61475d565b7fffffffffffffffffffffffffffffffffffffffffffffffffffffffffffffffff8901916147b1565b9889614ad8565b90613e6f60808b018b610a1d565b94909316911590614938565b600f0b5f036148f3565b937fffffffffffffffffffffffffffffffffffffffffffffffffffffffffffffffff613eb186926131c1565b9392019081613d87565b9050613ec9613c2a8361462e565b90613d81565b60088414613f06575050505b7f5cda29d7000000000000000000000000000000000000000000000000000000005f5260045260245ffd5b613f119293506146ad565b613f1d60c082016146bc565b6fffffffffffffffffffffffffffffffff811615613fa1575b613f84613c2a613f7c6fffffffffffffffffffffffffffffffff60e094613f5f60a088016146d9565b613f6d610100890189610a1d565b9390921690613cb9368a6146e6565b600f0b612ca3565b91016fffffffffffffffffffffffffffffffff80613dad836146bc565b50613fae60a082016146d9565b15613ff15760e0613f84613c2a613f7c6fffffffffffffffffffffffffffffffff613fe6613c2a613fe1602089016131c1565b61462e565b945050505050613f36565b60e0613f84613c2a613f7c6fffffffffffffffffffffffffffffffff613fe6613c2a613fe1886131c1565b92600c81036140a05750614030919261461b565b9061403a8161462e565b91808311614070575090612fb1917f0e87e1788ebd9ed6a7e63c70a374cd3283e41cad601d21fbe27863899ed4a7085c90614495565b90507f12bacdd3000000000000000000000000000000000000000000000000000000005f5260045260245260445ffd5b600f810361412357506140b3919261461b565b906140bd81614314565b918083106140f3575090612fb1917f0e87e1788ebd9ed6a7e63c70a374cd3283e41cad601d21fbe27863899ed4a7085c9061438d565b90507f8b063d73000000000000000000000000000000000000000000000000000000005f5260045260245260445ffd5b600b810361417c575061413a90612fb192936142fc565b156141715761416b827f0e87e1788ebd9ed6a7e63c70a374cd3283e41cad601d21fbe27863899ed4a7085c92614454565b91614495565b61416b823092614454565b600e81036141af57506141a36141996141a992612fb194956142fc565b92829492916131e2565b92614440565b9161438d565b92601084146141c057505050613edb565b612fb19293506141d66141df926141a9926142fc565b929193906131e2565b916141e984614314565b6139d2565b73ffffffffffffffffffffffffffffffffffffffff821673ffffffffffffffffffffffffffffffffffffffff8216105f14610a855791565b91612f6a9073ffffffffffffffffffffffffffffffffffffffff947fffffffffffffffffffffffffffffffffffffffff0000000000000000000000006040519181602084019460601b16845260601b1660348201526028815261428a604882612c28565b5190206111ff604051938492602084019687917fffffffffffffffffffffffffffffffffffffffff000000000000000000000000605594927fff00000000000000000000000000000000000000000000000000000000000000855260601b166001840152601583015260358201520190565b90606011611294578035916040602083013592013590565b61433f81307f00000000000000000000000000000000000000000000000000000000000000006147f1565b905f821261434b575090565b73ffffffffffffffffffffffffffffffffffffffff907f4c085bf1000000000000000000000000000000000000000000000000000000005f521660045260245ffd5b9091801561443b5773ffffffffffffffffffffffffffffffffffffffff7f000000000000000000000000000000000000000000000000000000000000000016803b156102e0575f928360649273ffffffffffffffffffffffffffffffffffffffff948560405198899788967f0b0d9c0900000000000000000000000000000000000000000000000000000000885216600487015216602485015260448401525af18015610e2c576133fa5750565b505050565b9081614450576132349150614314565b5090565b907f8000000000000000000000000000000000000000000000000000000000000000820361448657613234915061488b565b8161445057613234915061462e565b5f9183156146155773ffffffffffffffffffffffffffffffffffffffff7f00000000000000000000000000000000000000000000000000000000000000001691823b156102e05773ffffffffffffffffffffffffffffffffffffffff604051917fa584119400000000000000000000000000000000000000000000000000000000835216908160048201525f8160248183885af18015610e2c57614600575b50806145b35750506020906004604051809581937f11da60b40000000000000000000000000000000000000000000000000000000083525af19081156145a7575061457c5750565b61459d9060203d6020116145a0575b6145958183612c28565b810190612d7b565b50565b503d61458b565b604051903d90823e3d90fd5b839483602094936145c393612f86565b6004604051809581937f11da60b40000000000000000000000000000000000000000000000000000000083525af19081156145a7575061457c5750565b61460d9194505f90612c28565b5f925f614534565b50505050565b9190604011611294576020823592013590565b61465981307f00000000000000000000000000000000000000000000000000000000000000006147f1565b905f821361466b575061323490612ca3565b73ffffffffffffffffffffffffffffffffffffffff907f3351b260000000000000000000000000000000000000000000000000000000005f521660045260245ffd5b90610140116112945780350190565b356fffffffffffffffffffffffffffffffff811681036102e05790565b3580151581036102e05790565b91908260a09103126102e0576040516146fe81612bdf565b608061474a81839561470f81612d3c565b855261471d60208201612d3c565b602086015261472e60408201612d5d565b604086015261473f60608201612d6d565b606086015201612d3c565b910152565b9060a0116112945780350190565b9035907fffffffffffffffffffffffffffffffffffffffffffffffffffffffffffffffe1813603018212156102e0570180359067ffffffffffffffff82116102e057602001918160051b360383136102e057565b91908110156109f05760051b810135907fffffffffffffffffffffffffffffffffffffffffffffffffffffffffffffff61813603018212156102e0570190565b73ffffffffffffffffffffffffffffffffffffffff809381602094165f52168252602460405f2060405194859384927ff135baaa0000000000000000000000000000000000000000000000000000000084526004840152165afa908115610e2c575f9161485c575090565b90506020813d602011614883575b8161487760209383612c28565b810103126102e0575190565b3d915061486a565b73ffffffffffffffffffffffffffffffffffffffff16806148ab57504790565b6020602491604051928380927f70a082310000000000000000000000000000000000000000000000000000000082523060048301525afa908115610e2c575f9161485c575090565b906fffffffffffffffffffffffffffffffff821680920361491057565b7f93dafdf1000000000000000000000000000000000000000000000000000000005f5260045ffd5b9092908315614abd576401000276a4905b60405194606086019386851067ffffffffffffffff861117612bfb5773ffffffffffffffffffffffffffffffffffffffff9788608095614a2b946020986040521515998a8152888101908a82528360408201931683526040519c8d998a997ff3cd914c000000000000000000000000000000000000000000000000000000008b528281511660048c0152828d8201511660248c015262ffffff60408201511660448c0152606081015160020b60648c0152015116608489015251151560a48801525160c4870152511660e4850152610120610104850152610124840191612ccf565b03815f73ffffffffffffffffffffffffffffffffffffffff7f0000000000000000000000000000000000000000000000000000000000000000165af1928315610e2c575f93614a89575b505f1303614a8357600f0b90565b60801d90565b9092506020813d602011614ab5575b81614aa560209383612c28565b810103126102e05751915f614a75565b3d9150614a98565b73fffd8963efd1fc6a506488495d951d5263988d2590614949565b905f6080604051614ae881612bdf565b8281528260208201528260408201528260608201520152614b08826131c1565b73ffffffffffffffffffffffffffffffffffffffff82169173ffffffffffffffffffffffffffffffffffffffff82168084105f14614be0575073ffffffffffffffffffffffffffffffffffffffff905b1680921492602081013562ffffff81168091036102e0576040820135918260020b8093036102e057606001359273ffffffffffffffffffffffffffffffffffffffff84168094036102e05773ffffffffffffffffffffffffffffffffffffffff9060405195614bc687612bdf565b865216602085015260408401526060830152608082015291565b91505073ffffffffffffffffffffffffffffffffffffffff8291614b58565b5f81600f0b12614910576fffffffffffffffffffffffffffffffff169056fea2646970667358221220ee4c195f2512952aca35eecd1f45d2273d9dcbb25c92cba4b943d2661a5c1e8664736f6c634300081a0033","linkReferences":{}},"methodIdentifiers":{"V3_POSITION_MANAGER()":"817122dc","V4_POSITION_MANAGER()":"d0c9f6cb","execute(bytes,bytes[])":"24856bc3","execute(bytes,bytes[],uint256)":"3593564c","msgSender()":"d737d0c7","poolManager()":"dc4c90d3","uniswapV3SwapCallback(int256,int256,bytes)":"fa461e33","unlockCallback(bytes)":"91dd7346"},"id":0}